{
  "_format": "hh-sol-artifact-1",
  "contractName": "Derpies",
  "sourceName": "contracts/Derpies.sol",
  "abi": [
    {
      "inputs": [
        {
          "internalType": "string",
          "name": "_name",
          "type": "string"
        },
        {
          "internalType": "string",
          "name": "_symbol",
          "type": "string"
        },
        {
          "internalType": "string",
          "name": "_baseTokenURI",
          "type": "string"
        },
        {
          "internalType": "address",
          "name": "_vrfCoordinator",
          "type": "address"
        },
        {
          "internalType": "address",
          "name": "_linkToken",
          "type": "address"
        },
        {
          "internalType": "bytes32",
          "name": "_keyHash",
          "type": "bytes32"
        },
        {
          "internalType": "uint256",
          "name": "_fee",
          "type": "uint256"
        }
      ],
      "stateMutability": "nonpayable",
      "type": "constructor"
    },
    {
      "anonymous": false,
      "inputs": [
        {
          "indexed": true,
          "internalType": "address",
          "name": "owner",
          "type": "address"
        },
        {
          "indexed": true,
          "internalType": "address",
          "name": "approved",
          "type": "address"
        },
        {
          "indexed": true,
          "internalType": "uint256",
          "name": "tokenId",
          "type": "uint256"
        }
      ],
      "name": "Approval",
      "type": "event"
    },
    {
      "anonymous": false,
      "inputs": [
        {
          "indexed": true,
          "internalType": "address",
          "name": "owner",
          "type": "address"
        },
        {
          "indexed": true,
          "internalType": "address",
          "name": "operator",
          "type": "address"
        },
        {
          "indexed": false,
          "internalType": "bool",
          "name": "approved",
          "type": "bool"
        }
      ],
      "name": "ApprovalForAll",
      "type": "event"
    },
    {
      "anonymous": false,
      "inputs": [
        {
          "indexed": false,
          "internalType": "address",
          "name": "",
          "type": "address"
        },
        {
          "indexed": false,
          "internalType": "uint256",
          "name": "",
          "type": "uint256"
        }
      ],
      "name": "FallbackFunctionExecuted",
      "type": "event"
    },
    {
      "anonymous": false,
      "inputs": [
        {
          "indexed": true,
          "internalType": "address",
          "name": "minter",
          "type": "address"
        },
        {
          "indexed": false,
          "internalType": "uint256",
          "name": "tokenId",
          "type": "uint256"
        }
      ],
      "name": "MintedDerpie",
      "type": "event"
    },
    {
      "anonymous": false,
      "inputs": [
        {
          "indexed": true,
          "internalType": "address",
          "name": "previousOwner",
          "type": "address"
        },
        {
          "indexed": true,
          "internalType": "address",
          "name": "newOwner",
          "type": "address"
        }
      ],
      "name": "OwnershipTransferred",
      "type": "event"
    },
    {
      "anonymous": false,
      "inputs": [
        {
          "indexed": false,
          "internalType": "address",
          "name": "",
          "type": "address"
        },
        {
          "indexed": false,
          "internalType": "uint256",
          "name": "",
          "type": "uint256"
        }
      ],
      "name": "ReceiveFunctionExecuted",
      "type": "event"
    },
    {
      "anonymous": false,
      "inputs": [
        {
          "indexed": true,
          "internalType": "bytes32",
          "name": "requestId",
          "type": "bytes32"
        },
        {
          "indexed": true,
          "internalType": "uint256",
          "name": "tokenId",
          "type": "uint256"
        }
      ],
      "name": "RequestedDerpieMint",
      "type": "event"
    },
    {
      "anonymous": false,
      "inputs": [
        {
          "indexed": true,
          "internalType": "address",
          "name": "from",
          "type": "address"
        },
        {
          "indexed": true,
          "internalType": "address",
          "name": "to",
          "type": "address"
        },
        {
          "indexed": true,
          "internalType": "uint256",
          "name": "tokenId",
          "type": "uint256"
        }
      ],
      "name": "Transfer",
      "type": "event"
    },
    {
      "stateMutability": "payable",
      "type": "fallback"
    },
    {
      "inputs": [
        {
          "internalType": "address",
          "name": "to",
          "type": "address"
        },
        {
          "internalType": "uint256",
          "name": "tokenId",
          "type": "uint256"
        }
      ],
      "name": "approve",
      "outputs": [],
      "stateMutability": "nonpayable",
      "type": "function"
    },
    {
      "inputs": [
        {
          "internalType": "address",
          "name": "owner",
          "type": "address"
        }
      ],
      "name": "balanceOf",
      "outputs": [
        {
          "internalType": "uint256",
          "name": "",
          "type": "uint256"
        }
      ],
      "stateMutability": "view",
      "type": "function"
    },
    {
      "inputs": [],
      "name": "baseTokenURI",
      "outputs": [
        {
          "internalType": "string",
          "name": "",
          "type": "string"
        }
      ],
      "stateMutability": "view",
      "type": "function"
    },
    {
      "inputs": [
        {
          "internalType": "uint256",
          "name": "tokenId",
          "type": "uint256"
        }
      ],
      "name": "getApproved",
      "outputs": [
        {
          "internalType": "address",
          "name": "",
          "type": "address"
        }
      ],
      "stateMutability": "view",
      "type": "function"
    },
    {
      "inputs": [
        {
          "internalType": "address",
          "name": "owner",
          "type": "address"
        },
        {
          "internalType": "address",
          "name": "operator",
          "type": "address"
        }
      ],
      "name": "isApprovedForAll",
      "outputs": [
        {
          "internalType": "bool",
          "name": "",
          "type": "bool"
        }
      ],
      "stateMutability": "view",
      "type": "function"
    },
    {
      "inputs": [],
      "name": "isSaleActive",
      "outputs": [
        {
          "internalType": "bool",
          "name": "",
          "type": "bool"
        }
      ],
      "stateMutability": "view",
      "type": "function"
    },
    {
      "inputs": [],
      "name": "maxSupply",
      "outputs": [
        {
          "internalType": "uint256",
          "name": "",
          "type": "uint256"
        }
      ],
      "stateMutability": "view",
      "type": "function"
    },
    {
      "inputs": [],
      "name": "mintDerpie",
      "outputs": [
        {
          "internalType": "bytes32",
          "name": "requestId",
          "type": "bytes32"
        }
      ],
      "stateMutability": "payable",
      "type": "function"
    },
    {
      "inputs": [],
      "name": "name",
      "outputs": [
        {
          "internalType": "string",
          "name": "",
          "type": "string"
        }
      ],
      "stateMutability": "view",
      "type": "function"
    },
    {
      "inputs": [],
      "name": "owner",
      "outputs": [
        {
          "internalType": "address",
          "name": "",
          "type": "address"
        }
      ],
      "stateMutability": "view",
      "type": "function"
    },
    {
      "inputs": [
        {
          "internalType": "uint256",
          "name": "tokenId",
          "type": "uint256"
        }
      ],
      "name": "ownerOf",
      "outputs": [
        {
          "internalType": "address",
          "name": "",
          "type": "address"
        }
      ],
      "stateMutability": "view",
      "type": "function"
    },
    {
      "inputs": [],
      "name": "price",
      "outputs": [
        {
          "internalType": "uint256",
          "name": "",
          "type": "uint256"
        }
      ],
      "stateMutability": "view",
      "type": "function"
    },
    {
      "inputs": [
        {
          "internalType": "bytes32",
          "name": "",
          "type": "bytes32"
        }
      ],
      "name": "randomNumberRequestIdToSender",
      "outputs": [
        {
          "internalType": "address",
          "name": "",
          "type": "address"
        }
      ],
      "stateMutability": "view",
      "type": "function"
    },
    {
      "inputs": [
        {
          "internalType": "bytes32",
          "name": "",
          "type": "bytes32"
        }
      ],
      "name": "randomNumberRequestIdToTokenId",
      "outputs": [
        {
          "internalType": "uint256",
          "name": "",
          "type": "uint256"
        }
      ],
      "stateMutability": "view",
      "type": "function"
    },
    {
      "inputs": [
        {
          "internalType": "uint256",
          "name": "",
          "type": "uint256"
        }
      ],
      "name": "randomizedDerpieIdToDerpieName",
      "outputs": [
        {
          "internalType": "string",
          "name": "",
          "type": "string"
        }
      ],
      "stateMutability": "view",
      "type": "function"
    },
    {
      "inputs": [
        {
          "internalType": "bytes32",
          "name": "requestId",
          "type": "bytes32"
        },
        {
          "internalType": "uint256",
          "name": "randomness",
          "type": "uint256"
        }
      ],
      "name": "rawFulfillRandomness",
      "outputs": [],
      "stateMutability": "nonpayable",
      "type": "function"
    },
    {
      "inputs": [],
      "name": "renounceOwnership",
      "outputs": [],
      "stateMutability": "nonpayable",
      "type": "function"
    },
    {
      "inputs": [
        {
          "internalType": "address",
          "name": "from",
          "type": "address"
        },
        {
          "internalType": "address",
          "name": "to",
          "type": "address"
        },
        {
          "internalType": "uint256",
          "name": "tokenId",
          "type": "uint256"
        }
      ],
      "name": "safeTransferFrom",
      "outputs": [],
      "stateMutability": "nonpayable",
      "type": "function"
    },
    {
      "inputs": [
        {
          "internalType": "address",
          "name": "from",
          "type": "address"
        },
        {
          "internalType": "address",
          "name": "to",
          "type": "address"
        },
        {
          "internalType": "uint256",
          "name": "tokenId",
          "type": "uint256"
        },
        {
          "internalType": "bytes",
          "name": "_data",
          "type": "bytes"
        }
      ],
      "name": "safeTransferFrom",
      "outputs": [],
      "stateMutability": "nonpayable",
      "type": "function"
    },
    {
      "inputs": [
        {
          "internalType": "address",
          "name": "operator",
          "type": "address"
        },
        {
          "internalType": "bool",
          "name": "approved",
          "type": "bool"
        }
      ],
      "name": "setApprovalForAll",
      "outputs": [],
      "stateMutability": "nonpayable",
      "type": "function"
    },
    {
      "inputs": [
        {
          "internalType": "string",
          "name": "_newBaseTokenURI",
          "type": "string"
        }
      ],
      "name": "setBaseURI",
      "outputs": [],
      "stateMutability": "nonpayable",
      "type": "function"
    },
    {
      "inputs": [
        {
          "internalType": "uint256",
          "name": "_newPrice",
          "type": "uint256"
        }
      ],
      "name": "setPrice",
      "outputs": [],
      "stateMutability": "nonpayable",
      "type": "function"
    },
    {
      "inputs": [
        {
          "internalType": "bytes4",
          "name": "interfaceId",
          "type": "bytes4"
        }
      ],
      "name": "supportsInterface",
      "outputs": [
        {
          "internalType": "bool",
          "name": "",
          "type": "bool"
        }
      ],
      "stateMutability": "view",
      "type": "function"
    },
    {
      "inputs": [],
      "name": "symbol",
      "outputs": [
        {
          "internalType": "string",
          "name": "",
          "type": "string"
        }
      ],
      "stateMutability": "view",
      "type": "function"
    },
    {
      "inputs": [],
      "name": "toggleIsSaleActive",
      "outputs": [],
      "stateMutability": "nonpayable",
      "type": "function"
    },
    {
      "inputs": [
        {
          "internalType": "uint256",
          "name": "index",
          "type": "uint256"
        }
      ],
      "name": "tokenByIndex",
      "outputs": [
        {
          "internalType": "uint256",
          "name": "",
          "type": "uint256"
        }
      ],
      "stateMutability": "view",
      "type": "function"
    },
    {
      "inputs": [
        {
          "internalType": "uint256",
          "name": "",
          "type": "uint256"
        }
      ],
      "name": "tokenIdToRandomizedDerpieId",
      "outputs": [
        {
          "internalType": "uint256",
          "name": "",
          "type": "uint256"
        }
      ],
      "stateMutability": "view",
      "type": "function"
    },
    {
      "inputs": [
        {
          "internalType": "address",
          "name": "owner",
          "type": "address"
        },
        {
          "internalType": "uint256",
          "name": "index",
          "type": "uint256"
        }
      ],
      "name": "tokenOfOwnerByIndex",
      "outputs": [
        {
          "internalType": "uint256",
          "name": "",
          "type": "uint256"
        }
      ],
      "stateMutability": "view",
      "type": "function"
    },
    {
      "inputs": [
        {
          "internalType": "uint256",
          "name": "tokenId",
          "type": "uint256"
        }
      ],
      "name": "tokenURI",
      "outputs": [
        {
          "internalType": "string",
          "name": "",
          "type": "string"
        }
      ],
      "stateMutability": "view",
      "type": "function"
    },
    {
      "inputs": [],
      "name": "totalSupply",
      "outputs": [
        {
          "internalType": "uint256",
          "name": "",
          "type": "uint256"
        }
      ],
      "stateMutability": "view",
      "type": "function"
    },
    {
      "inputs": [
        {
          "internalType": "address",
          "name": "from",
          "type": "address"
        },
        {
          "internalType": "address",
          "name": "to",
          "type": "address"
        },
        {
          "internalType": "uint256",
          "name": "tokenId",
          "type": "uint256"
        }
      ],
      "name": "transferFrom",
      "outputs": [],
      "stateMutability": "nonpayable",
      "type": "function"
    },
    {
      "inputs": [
        {
          "internalType": "address",
          "name": "newOwner",
          "type": "address"
        }
      ],
      "name": "transferOwnership",
      "outputs": [],
      "stateMutability": "nonpayable",
      "type": "function"
    },
    {
      "inputs": [],
      "name": "withdraw",
      "outputs": [],
      "stateMutability": "nonpayable",
      "type": "function"
    },
    {
      "stateMutability": "payable",
      "type": "receive"
    }
  ],
  "bytecode": "0x60c06040526101f4600d55662386f26fc10000600e556000600f60006101000a81548160ff0219169083151502179055503480156200003d57600080fd5b506040516200554d3803806200554d833981810160405281019062000063919062000bf2565b8383888881600090805190602001906200007f92919062000a8b565b5080600190805190602001906200009892919062000a8b565b505050620000bb620000af6200016760201b60201c565b6200016f60201b60201c565b8173ffffffffffffffffffffffffffffffffffffffff1660a08173ffffffffffffffffffffffffffffffffffffffff1660601b815250508073ffffffffffffffffffffffffffffffffffffffff1660808173ffffffffffffffffffffffffffffffffffffffff1660601b81525050505081601081905550806011819055506200014a856200023560201b60201c565b6200015a620002e060201b60201c565b5050505050505062000f26565b600033905090565b6000600a60009054906101000a900473ffffffffffffffffffffffffffffffffffffffff16905081600a60006101000a81548173ffffffffffffffffffffffffffffffffffffffff021916908373ffffffffffffffffffffffffffffffffffffffff1602179055508173ffffffffffffffffffffffffffffffffffffffff168173ffffffffffffffffffffffffffffffffffffffff167f8be0079c531659141344cd1fd0a4f28419497f9722a3daafe3b4186f6b6457e060405160405180910390a35050565b620002456200016760201b60201c565b73ffffffffffffffffffffffffffffffffffffffff166200026b62000a6160201b60201c565b73ffffffffffffffffffffffffffffffffffffffff1614620002c4576040517f08c379a0000000000000000000000000000000000000000000000000000000008152600401620002bb9062000d2c565b60405180910390fd5b80600c9080519060200190620002dc92919062000a8b565b5050565b6040518060400160405280600681526020017f42656176657200000000000000000000000000000000000000000000000000008152506013600080815260200190815260200160002090805190602001906200033e92919062000a8b565b506040518060400160405280600581526020017f42756e6e79000000000000000000000000000000000000000000000000000000815250601360006001815260200190815260200160002090805190602001906200039e92919062000a8b565b506040518060400160405280600781526020017f436865657461680000000000000000000000000000000000000000000000000081525060136000600281526020019081526020016000209080519060200190620003fe92919062000a8b565b506040518060400160405280600881526020017f456c657068616e74000000000000000000000000000000000000000000000000815250601360006003815260200190815260200160002090805190602001906200045e92919062000a8b565b506040518060400160405280600881526020017f466c616d696e676f00000000000000000000000000000000000000000000000081525060136000600481526020019081526020016000209080519060200190620004be92919062000a8b565b506040518060400160405280600381526020017f466f780000000000000000000000000000000000000000000000000000000000815250601360006005815260200190815260200160002090805190602001906200051e92919062000a8b565b506040518060400160405280600781526020017f4769726166666500000000000000000000000000000000000000000000000000815250601360006006815260200190815260200160002090805190602001906200057e92919062000a8b565b506040518060400160405280600681526020017f486564676965000000000000000000000000000000000000000000000000000081525060136000600781526020019081526020016000209080519060200190620005de92919062000a8b565b506040518060400160405280600681526020017f486f727369650000000000000000000000000000000000000000000000000000815250601360006008815260200190815260200160002090805190602001906200063e92919062000a8b565b506040518060400160405280600581526020017f4b69747479000000000000000000000000000000000000000000000000000000815250601360006009815260200190815260200160002090805190602001906200069e92919062000a8b565b506040518060400160405280600581526020017f4c656d757200000000000000000000000000000000000000000000000000000081525060136000600a81526020019081526020016000209080519060200190620006fe92919062000a8b565b506040518060400160405280600581526020017f4c6c616d6100000000000000000000000000000000000000000000000000000081525060136000600b815260200190815260200160002090805190602001906200075e92919062000a8b565b506040518060400160405280600781526020017f4e61727768616c0000000000000000000000000000000000000000000000000081525060136000600c81526020019081526020016000209080519060200190620007be92919062000a8b565b506040518060400160405280600781526020017f4f63746f7075730000000000000000000000000000000000000000000000000081525060136000600d815260200190815260200160002090805190602001906200081e92919062000a8b565b506040518060400160405280600481526020017f4f7263610000000000000000000000000000000000000000000000000000000081525060136000600e815260200190815260200160002090805190602001906200087e92919062000a8b565b506040518060400160405280600681526020017f506967676965000000000000000000000000000000000000000000000000000081525060136000600f81526020019081526020016000209080519060200190620008de92919062000a8b565b506040518060400160405280600a81526020017f5268696e6f6365726f7300000000000000000000000000000000000000000000815250601360006010815260200190815260200160002090805190602001906200093e92919062000a8b565b506040518060400160405280600981526020017f53616e6470697065720000000000000000000000000000000000000000000000815250601360006011815260200190815260200160002090805190602001906200099e92919062000a8b565b506040518060400160405280600581526020017f536861726b00000000000000000000000000000000000000000000000000000081525060136000601281526020019081526020016000209080519060200190620009fe92919062000a8b565b506040518060400160405280600881526020017f537175697272656c0000000000000000000000000000000000000000000000008152506013600060138152602001908152602001600020908051906020019062000a5e92919062000a8b565b50565b6000600a60009054906101000a900473ffffffffffffffffffffffffffffffffffffffff16905090565b82805462000a999062000e44565b90600052602060002090601f01602090048101928262000abd576000855562000b09565b82601f1062000ad857805160ff191683800117855562000b09565b8280016001018555821562000b09579182015b8281111562000b0857825182559160200191906001019062000aeb565b5b50905062000b18919062000b1c565b5090565b5b8082111562000b3757600081600090555060010162000b1d565b5090565b600062000b5262000b4c8462000d82565b62000d4e565b90508281526020810184848401111562000b6b57600080fd5b62000b7884828562000e0e565b509392505050565b60008151905062000b918162000ed8565b92915050565b60008151905062000ba88162000ef2565b92915050565b600082601f83011262000bc057600080fd5b815162000bd284826020860162000b3b565b91505092915050565b60008151905062000bec8162000f0c565b92915050565b600080600080600080600060e0888a03121562000c0e57600080fd5b600088015167ffffffffffffffff81111562000c2957600080fd5b62000c378a828b0162000bae565b975050602088015167ffffffffffffffff81111562000c5557600080fd5b62000c638a828b0162000bae565b965050604088015167ffffffffffffffff81111562000c8157600080fd5b62000c8f8a828b0162000bae565b955050606062000ca28a828b0162000b80565b945050608062000cb58a828b0162000b80565b93505060a062000cc88a828b0162000b97565b92505060c062000cdb8a828b0162000bdb565b91505092959891949750929550565b600062000cf960208362000db5565b91507f4f776e61626c653a2063616c6c6572206973206e6f7420746865206f776e65726000830152602082019050919050565b6000602082019050818103600083015262000d478162000cea565b9050919050565b6000604051905081810181811067ffffffffffffffff8211171562000d785762000d7762000ea9565b5b8060405250919050565b600067ffffffffffffffff82111562000da05762000d9f62000ea9565b5b601f19601f8301169050602081019050919050565b600082825260208201905092915050565b600062000dd38262000de4565b9050919050565b6000819050919050565b600073ffffffffffffffffffffffffffffffffffffffff82169050919050565b6000819050919050565b60005b8381101562000e2e57808201518184015260208101905062000e11565b8381111562000e3e576000848401525b50505050565b6000600282049050600182168062000e5d57607f821691505b6020821081141562000e745762000e7362000e7a565b5b50919050565b7f4e487b7100000000000000000000000000000000000000000000000000000000600052602260045260246000fd5b7f4e487b7100000000000000000000000000000000000000000000000000000000600052604160045260246000fd5b62000ee38162000dc6565b811462000eef57600080fd5b50565b62000efd8162000dda565b811462000f0957600080fd5b50565b62000f178162000e04565b811462000f2357600080fd5b50565b60805160601c60a05160601c6145ed62000f606000396000818161125f015261232901526000818161147201526122ed01526145ed6000f3fe6080604052600436106101f25760003560e01c806384381b9d1161010d578063af3c59eb116100a0578063d547cfb71161006f578063d547cfb71461077c578063d5abeb01146107a7578063e318ac1b146107d2578063e985e9c51461080f578063f2fde38b1461084c57610232565b8063af3c59eb146106bb578063b3a8ec8f146106f8578063b88d4fde14610716578063c87b56dd1461073f57610232565b806394985ddd116100dc57806394985ddd1461061357806395d89b411461063c578063a035b1fe14610667578063a22cb4651461069257610232565b806384381b9d1461056b5780638bed7197146105825780638da5cb5b146105bf57806391b7f5ed146105ea57610232565b806342842e0e116101855780636352211e116101545780636352211e1461049d57806370a08231146104da578063715018a61461051757806375b638ef1461052e57610232565b806342842e0e146103e35780634f6ccce71461040c57806355f804b314610449578063564566a81461047257610232565b806318160ddd116101c157806318160ddd1461033b57806323b872dd146103665780632f745c591461038f5780633ccfd60b146103cc57610232565b806301ffc9a71461026d57806306fdde03146102aa578063081812fc146102d5578063095ea7b31461031257610232565b36610232577fb19118b58e01c4aaba02a8e017f456a88e2bbcbe516816d38fd80cad6842d7d93334604051610228929190613dba565b60405180910390a1005b7ff599e0ad8e466847cb6a2d1ac6afd4c82f5e3cc5d7b279c4e7818cb0084baa683334604051610263929190613dba565b60405180910390a1005b34801561027957600080fd5b50610294600480360381019061028f91906132e4565b610875565b6040516102a19190613e21565b60405180910390f35b3480156102b657600080fd5b506102bf6108ef565b6040516102cc9190613ec5565b60405180910390f35b3480156102e157600080fd5b506102fc60048036038101906102f79190613377565b610981565b6040516103099190613d53565b60405180910390f35b34801561031e57600080fd5b506103396004803603810190610334919061321a565b610a06565b005b34801561034757600080fd5b50610350610b1e565b60405161035d91906141c7565b60405180910390f35b34801561037257600080fd5b5061038d60048036038101906103889190613114565b610b2b565b005b34801561039b57600080fd5b506103b660048036038101906103b1919061321a565b610b8b565b6040516103c391906141c7565b60405180910390f35b3480156103d857600080fd5b506103e1610c30565b005b3480156103ef57600080fd5b5061040a60048036038101906104059190613114565b610cfb565b005b34801561041857600080fd5b50610433600480360381019061042e9190613377565b610d1b565b60405161044091906141c7565b60405180910390f35b34801561045557600080fd5b50610470600480360381019061046b9190613336565b610db2565b005b34801561047e57600080fd5b50610487610e48565b6040516104949190613e21565b60405180910390f35b3480156104a957600080fd5b506104c460048036038101906104bf9190613377565b610e5b565b6040516104d19190613d53565b60405180910390f35b3480156104e657600080fd5b5061050160048036038101906104fc91906130af565b610f0d565b60405161050e91906141c7565b60405180910390f35b34801561052357600080fd5b5061052c610fc5565b005b34801561053a57600080fd5b506105556004803603810190610550919061327f565b61104d565b60405161056291906141c7565b60405180910390f35b34801561057757600080fd5b50610580611065565b005b34801561058e57600080fd5b506105a960048036038101906105a49190613377565b61110d565b6040516105b69190613ec5565b60405180910390f35b3480156105cb57600080fd5b506105d46111ad565b6040516105e19190613d53565b60405180910390f35b3480156105f657600080fd5b50610611600480360381019061060c9190613377565b6111d7565b005b34801561061f57600080fd5b5061063a600480360381019061063591906132a8565b61125d565b005b34801561064857600080fd5b506106516112f9565b60405161065e9190613ec5565b60405180910390f35b34801561067357600080fd5b5061067c61138b565b60405161068991906141c7565b60405180910390f35b34801561069e57600080fd5b506106b960048036038101906106b491906131de565b611391565b005b3480156106c757600080fd5b506106e260048036038101906106dd9190613377565b6113a7565b6040516106ef91906141c7565b60405180910390f35b6107006113bf565b60405161070d9190613e3c565b60405180910390f35b34801561072257600080fd5b5061073d60048036038101906107389190613163565b61164a565b005b34801561074b57600080fd5b5061076660048036038101906107619190613377565b6116ac565b6040516107739190613ec5565b60405180910390f35b34801561078857600080fd5b50610791611842565b60405161079e9190613ec5565b60405180910390f35b3480156107b357600080fd5b506107bc6118d0565b6040516107c991906141c7565b60405180910390f35b3480156107de57600080fd5b506107f960048036038101906107f4919061327f565b6118d6565b6040516108069190613d53565b60405180910390f35b34801561081b57600080fd5b50610836600480360381019061083191906130d8565b611909565b6040516108439190613e21565b60405180910390f35b34801561085857600080fd5b50610873600480360381019061086e91906130af565b61199d565b005b60007f780e9d63000000000000000000000000000000000000000000000000000000007bffffffffffffffffffffffffffffffffffffffffffffffffffffffff1916827bffffffffffffffffffffffffffffffffffffffffffffffffffffffff191614806108e857506108e782611a95565b5b9050919050565b6060600080546108fe90614400565b80601f016020809104026020016040519081016040528092919081815260200182805461092a90614400565b80156109775780601f1061094c57610100808354040283529160200191610977565b820191906000526020600020905b81548152906001019060200180831161095a57829003601f168201915b5050505050905090565b600061098c82611b77565b6109cb576040517f08c379a00000000000000000000000000000000000000000000000000000000081526004016109c290614087565b60405180910390fd5b6004600083815260200190815260200160002060009054906101000a900473ffffffffffffffffffffffffffffffffffffffff169050919050565b6000610a1182610e5b565b90508073ffffffffffffffffffffffffffffffffffffffff168373ffffffffffffffffffffffffffffffffffffffff161415610a82576040517f08c379a0000000000000000000000000000000000000000000000000000000008152600401610a7990614127565b60405180910390fd5b8073ffffffffffffffffffffffffffffffffffffffff16610aa1611be3565b73ffffffffffffffffffffffffffffffffffffffff161480610ad05750610acf81610aca611be3565b611909565b5b610b0f576040517f08c379a0000000000000000000000000000000000000000000000000000000008152600401610b0690614007565b60405180910390fd5b610b198383611beb565b505050565b6000600880549050905090565b610b3c610b36611be3565b82611ca4565b610b7b576040517f08c379a0000000000000000000000000000000000000000000000000000000008152600401610b7290614167565b60405180910390fd5b610b86838383611d82565b505050565b6000610b9683610f0d565b8210610bd7576040517f08c379a0000000000000000000000000000000000000000000000000000000008152600401610bce90613f07565b60405180910390fd5b600660008473ffffffffffffffffffffffffffffffffffffffff1673ffffffffffffffffffffffffffffffffffffffff168152602001908152602001600020600083815260200190815260200160002054905092915050565b610c38611be3565b73ffffffffffffffffffffffffffffffffffffffff16610c566111ad565b73ffffffffffffffffffffffffffffffffffffffff1614610cac576040517f08c379a0000000000000000000000000000000000000000000000000000000008152600401610ca3906140a7565b60405180910390fd5b60004790503373ffffffffffffffffffffffffffffffffffffffff166108fc829081150290604051600060405180830381858888f19350505050158015610cf7573d6000803e3d6000fd5b5050565b610d168383836040518060200160405280600081525061164a565b505050565b6000610d25610b1e565b8210610d66576040517f08c379a0000000000000000000000000000000000000000000000000000000008152600401610d5d906141a7565b60405180910390fd5b60088281548110610da0577f4e487b7100000000000000000000000000000000000000000000000000000000600052603260045260246000fd5b90600052602060002001549050919050565b610dba611be3565b73ffffffffffffffffffffffffffffffffffffffff16610dd86111ad565b73ffffffffffffffffffffffffffffffffffffffff1614610e2e576040517f08c379a0000000000000000000000000000000000000000000000000000000008152600401610e25906140a7565b60405180910390fd5b80600c9080519060200190610e44929190612e94565b5050565b600f60009054906101000a900460ff1681565b6000806002600084815260200190815260200160002060009054906101000a900473ffffffffffffffffffffffffffffffffffffffff169050600073ffffffffffffffffffffffffffffffffffffffff168173ffffffffffffffffffffffffffffffffffffffff161415610f04576040517f08c379a0000000000000000000000000000000000000000000000000000000008152600401610efb90614047565b60405180910390fd5b80915050919050565b60008073ffffffffffffffffffffffffffffffffffffffff168273ffffffffffffffffffffffffffffffffffffffff161415610f7e576040517f08c379a0000000000000000000000000000000000000000000000000000000008152600401610f7590614027565b60405180910390fd5b600360008373ffffffffffffffffffffffffffffffffffffffff1673ffffffffffffffffffffffffffffffffffffffff168152602001908152602001600020549050919050565b610fcd611be3565b73ffffffffffffffffffffffffffffffffffffffff16610feb6111ad565b73ffffffffffffffffffffffffffffffffffffffff1614611041576040517f08c379a0000000000000000000000000000000000000000000000000000000008152600401611038906140a7565b60405180910390fd5b61104b6000611fde565b565b60156020528060005260406000206000915090505481565b61106d611be3565b73ffffffffffffffffffffffffffffffffffffffff1661108b6111ad565b73ffffffffffffffffffffffffffffffffffffffff16146110e1576040517f08c379a00000000000000000000000000000000000000000000000000000000081526004016110d8906140a7565b60405180910390fd5b600f60009054906101000a900460ff1615600f60006101000a81548160ff021916908315150217905550565b6013602052806000526040600020600091509050805461112c90614400565b80601f016020809104026020016040519081016040528092919081815260200182805461115890614400565b80156111a55780601f1061117a576101008083540402835291602001916111a5565b820191906000526020600020905b81548152906001019060200180831161118857829003601f168201915b505050505081565b6000600a60009054906101000a900473ffffffffffffffffffffffffffffffffffffffff16905090565b6111df611be3565b73ffffffffffffffffffffffffffffffffffffffff166111fd6111ad565b73ffffffffffffffffffffffffffffffffffffffff1614611253576040517f08c379a000000000000000000000000000000000000000000000000000000000815260040161124a906140a7565b60405180910390fd5b80600e8190555050565b7f000000000000000000000000000000000000000000000000000000000000000073ffffffffffffffffffffffffffffffffffffffff163373ffffffffffffffffffffffffffffffffffffffff16146112eb576040517f08c379a00000000000000000000000000000000000000000000000000000000081526004016112e290614107565b60405180910390fd5b6112f582826120a4565b5050565b60606001805461130890614400565b80601f016020809104026020016040519081016040528092919081815260200182805461133490614400565b80156113815780601f1061135657610100808354040283529160200191611381565b820191906000526020600020905b81548152906001019060200180831161136457829003601f168201915b5050505050905090565b600e5481565b6113a361139c611be3565b838361217c565b5050565b60126020528060005260406000206000915090505481565b6000600f60009054906101000a900460ff16611410576040517f08c379a000000000000000000000000000000000000000000000000000000000815260040161140790613ee7565b60405180910390fd5b600061141a610b1e565b90506001600d5461142b919061430c565b81111561146d576040517f08c379a000000000000000000000000000000000000000000000000000000000815260040161146490614147565b60405180910390fd5b6011547f000000000000000000000000000000000000000000000000000000000000000073ffffffffffffffffffffffffffffffffffffffff166370a08231306040518263ffffffff1660e01b81526004016114c99190613d53565b60206040518083038186803b1580156114e157600080fd5b505afa1580156114f5573d6000803e3d6000fd5b505050506040513d601f19601f8201168201806040525081019061151991906133a0565b101561155a576040517f08c379a000000000000000000000000000000000000000000000000000000000815260040161155190613fc7565b60405180910390fd5b600e5434101561159f576040517f08c379a000000000000000000000000000000000000000000000000000000000815260040161159690614187565b60405180910390fd5b6115ad6010546011546122e9565b9150336014600084815260200190815260200160002060006101000a81548173ffffffffffffffffffffffffffffffffffffffff021916908373ffffffffffffffffffffffffffffffffffffffff16021790555080601560008481526020019081526020016000208190555080827e8323d2139820c7deb32ef195fcfafa658cb39db5fd40ecbc9b2b111da9da4b60405160405180910390a35090565b61165b611655611be3565b83611ca4565b61169a576040517f08c379a000000000000000000000000000000000000000000000000000000000815260040161169190614167565b60405180910390fd5b6116a68484848461244b565b50505050565b60606116b782611b77565b6116f6576040517f08c379a00000000000000000000000000000000000000000000000000000000081526004016116ed906140e7565b60405180910390fd5b600060126000848152602001908152602001600020549050600060136000838152602001908152602001600020805461172e90614400565b80601f016020809104026020016040519081016040528092919081815260200182805461175a90614400565b80156117a75780601f1061177c576101008083540402835291602001916117a7565b820191906000526020600020905b81548152906001019060200180831161178a57829003601f168201915b5050505050905060006117b86124a7565b905060006040518060400160405280600581526020017f2e6a736f6e000000000000000000000000000000000000000000000000000000815250905060008251116118125760405180602001604052806000815250611837565b81838260405160200161182793929190613d22565b6040516020818303038152906040525b945050505050919050565b600c805461184f90614400565b80601f016020809104026020016040519081016040528092919081815260200182805461187b90614400565b80156118c85780601f1061189d576101008083540402835291602001916118c8565b820191906000526020600020905b8154815290600101906020018083116118ab57829003601f168201915b505050505081565b600d5481565b60146020528060005260406000206000915054906101000a900473ffffffffffffffffffffffffffffffffffffffff1681565b6000600560008473ffffffffffffffffffffffffffffffffffffffff1673ffffffffffffffffffffffffffffffffffffffff16815260200190815260200160002060008373ffffffffffffffffffffffffffffffffffffffff1673ffffffffffffffffffffffffffffffffffffffff16815260200190815260200160002060009054906101000a900460ff16905092915050565b6119a5611be3565b73ffffffffffffffffffffffffffffffffffffffff166119c36111ad565b73ffffffffffffffffffffffffffffffffffffffff1614611a19576040517f08c379a0000000000000000000000000000000000000000000000000000000008152600401611a10906140a7565b60405180910390fd5b600073ffffffffffffffffffffffffffffffffffffffff168173ffffffffffffffffffffffffffffffffffffffff161415611a89576040517f08c379a0000000000000000000000000000000000000000000000000000000008152600401611a8090613f47565b60405180910390fd5b611a9281611fde565b50565b60007f80ac58cd000000000000000000000000000000000000000000000000000000007bffffffffffffffffffffffffffffffffffffffffffffffffffffffff1916827bffffffffffffffffffffffffffffffffffffffffffffffffffffffff19161480611b6057507f5b5e139f000000000000000000000000000000000000000000000000000000007bffffffffffffffffffffffffffffffffffffffffffffffffffffffff1916827bffffffffffffffffffffffffffffffffffffffffffffffffffffffff1916145b80611b705750611b6f82612539565b5b9050919050565b60008073ffffffffffffffffffffffffffffffffffffffff166002600084815260200190815260200160002060009054906101000a900473ffffffffffffffffffffffffffffffffffffffff1673ffffffffffffffffffffffffffffffffffffffff1614159050919050565b600033905090565b816004600083815260200190815260200160002060006101000a81548173ffffffffffffffffffffffffffffffffffffffff021916908373ffffffffffffffffffffffffffffffffffffffff160217905550808273ffffffffffffffffffffffffffffffffffffffff16611c5e83610e5b565b73ffffffffffffffffffffffffffffffffffffffff167f8c5be1e5ebec7d5bd14f71427d1e84f3dd0314c0f7b2291e5b200ac8c7c3b92560405160405180910390a45050565b6000611caf82611b77565b611cee576040517f08c379a0000000000000000000000000000000000000000000000000000000008152600401611ce590613fe7565b60405180910390fd5b6000611cf983610e5b565b90508073ffffffffffffffffffffffffffffffffffffffff168473ffffffffffffffffffffffffffffffffffffffff161480611d6857508373ffffffffffffffffffffffffffffffffffffffff16611d5084610981565b73ffffffffffffffffffffffffffffffffffffffff16145b80611d795750611d788185611909565b5b91505092915050565b8273ffffffffffffffffffffffffffffffffffffffff16611da282610e5b565b73ffffffffffffffffffffffffffffffffffffffff1614611df8576040517f08c379a0000000000000000000000000000000000000000000000000000000008152600401611def906140c7565b60405180910390fd5b600073ffffffffffffffffffffffffffffffffffffffff168273ffffffffffffffffffffffffffffffffffffffff161415611e68576040517f08c379a0000000000000000000000000000000000000000000000000000000008152600401611e5f90613f87565b60405180910390fd5b611e738383836125a3565b611e7e600082611beb565b6001600360008573ffffffffffffffffffffffffffffffffffffffff1673ffffffffffffffffffffffffffffffffffffffff1681526020019081526020016000206000828254611ece919061430c565b925050819055506001600360008473ffffffffffffffffffffffffffffffffffffffff1673ffffffffffffffffffffffffffffffffffffffff1681526020019081526020016000206000828254611f2591906142b6565b92505081905550816002600083815260200190815260200160002060006101000a81548173ffffffffffffffffffffffffffffffffffffffff021916908373ffffffffffffffffffffffffffffffffffffffff160217905550808273ffffffffffffffffffffffffffffffffffffffff168473ffffffffffffffffffffffffffffffffffffffff167fddf252ad1be2c89b69c2b068fc378daa952ba7f163c4a11628f55a4df523b3ef60405160405180910390a4505050565b6000600a60009054906101000a900473ffffffffffffffffffffffffffffffffffffffff16905081600a60006101000a81548173ffffffffffffffffffffffffffffffffffffffff021916908373ffffffffffffffffffffffffffffffffffffffff1602179055508173ffffffffffffffffffffffffffffffffffffffff168173ffffffffffffffffffffffffffffffffffffffff167f8be0079c531659141344cd1fd0a4f28419497f9722a3daafe3b4186f6b6457e060405160405180910390a35050565b60006014600084815260200190815260200160002060009054906101000a900473ffffffffffffffffffffffffffffffffffffffff1690506000601560008581526020019081526020016000205490506120fe82826126b7565b8173ffffffffffffffffffffffffffffffffffffffff167f18df6c46f8e37e273cf3edf880a60217c6ea79f45cea74cccef11445c4e915d68260405161214491906141c7565b60405180910390a2600060148461215b9190614446565b90508060126000848152602001908152602001600020819055505050505050565b8173ffffffffffffffffffffffffffffffffffffffff168373ffffffffffffffffffffffffffffffffffffffff1614156121eb576040517f08c379a00000000000000000000000000000000000000000000000000000000081526004016121e290613fa7565b60405180910390fd5b80600560008573ffffffffffffffffffffffffffffffffffffffff1673ffffffffffffffffffffffffffffffffffffffff16815260200190815260200160002060008473ffffffffffffffffffffffffffffffffffffffff1673ffffffffffffffffffffffffffffffffffffffff16815260200190815260200160002060006101000a81548160ff0219169083151502179055508173ffffffffffffffffffffffffffffffffffffffff168373ffffffffffffffffffffffffffffffffffffffff167f17307eab39ab6107e8899845ad3d59bd9653f200f220920489ca2b5937696c31836040516122dc9190613e21565b60405180910390a3505050565b60007f000000000000000000000000000000000000000000000000000000000000000073ffffffffffffffffffffffffffffffffffffffff16634000aea07f00000000000000000000000000000000000000000000000000000000000000008486600060405160200161235d929190613e57565b6040516020818303038152906040526040518463ffffffff1660e01b815260040161238a93929190613de3565b602060405180830381600087803b1580156123a457600080fd5b505af11580156123b8573d6000803e3d6000fd5b505050506040513d601f19601f820116820180604052508101906123dc9190613256565b5060006123ff84600030600b6000898152602001908152602001600020546126d5565b90506001600b60008681526020019081526020016000205461242191906142b6565b600b6000868152602001908152602001600020819055506124428482612711565b91505092915050565b612456848484611d82565b61246284848484612744565b6124a1576040517f08c379a000000000000000000000000000000000000000000000000000000000815260040161249890613f27565b60405180910390fd5b50505050565b6060600c80546124b690614400565b80601f01602080910402602001604051908101604052809291908181526020018280546124e290614400565b801561252f5780601f106125045761010080835404028352916020019161252f565b820191906000526020600020905b81548152906001019060200180831161251257829003601f168201915b5050505050905090565b60007f01ffc9a7000000000000000000000000000000000000000000000000000000007bffffffffffffffffffffffffffffffffffffffffffffffffffffffff1916827bffffffffffffffffffffffffffffffffffffffffffffffffffffffff1916149050919050565b6125ae8383836128db565b600073ffffffffffffffffffffffffffffffffffffffff168373ffffffffffffffffffffffffffffffffffffffff1614156125f1576125ec816128e0565b612630565b8173ffffffffffffffffffffffffffffffffffffffff168373ffffffffffffffffffffffffffffffffffffffff161461262f5761262e8382612929565b5b5b600073ffffffffffffffffffffffffffffffffffffffff168273ffffffffffffffffffffffffffffffffffffffff1614156126735761266e81612a96565b6126b2565b8273ffffffffffffffffffffffffffffffffffffffff168273ffffffffffffffffffffffffffffffffffffffff16146126b1576126b08282612bd9565b5b5b505050565b6126d1828260405180602001604052806000815250612c58565b5050565b6000848484846040516020016126ee9493929190613e80565b6040516020818303038152906040528051906020012060001c9050949350505050565b60008282604051602001612726929190613cf6565b60405160208183030381529060405280519060200120905092915050565b60006127658473ffffffffffffffffffffffffffffffffffffffff16612cb3565b156128ce578373ffffffffffffffffffffffffffffffffffffffff1663150b7a0261278e611be3565b8786866040518563ffffffff1660e01b81526004016127b09493929190613d6e565b602060405180830381600087803b1580156127ca57600080fd5b505af19250505080156127fb57506040513d601f19601f820116820180604052508101906127f8919061330d565b60015b61287e573d806000811461282b576040519150601f19603f3d011682016040523d82523d6000602084013e612830565b606091505b50600081511415612876576040517f08c379a000000000000000000000000000000000000000000000000000000000815260040161286d90613f27565b60405180910390fd5b805181602001fd5b63150b7a0260e01b7bffffffffffffffffffffffffffffffffffffffffffffffffffffffff1916817bffffffffffffffffffffffffffffffffffffffffffffffffffffffff1916149150506128d3565b600190505b949350505050565b505050565b6008805490506009600083815260200190815260200160002081905550600881908060018154018082558091505060019003906000526020600020016000909190919091505550565b6000600161293684610f0d565b612940919061430c565b9050600060076000848152602001908152602001600020549050818114612a25576000600660008673ffffffffffffffffffffffffffffffffffffffff1673ffffffffffffffffffffffffffffffffffffffff168152602001908152602001600020600084815260200190815260200160002054905080600660008773ffffffffffffffffffffffffffffffffffffffff1673ffffffffffffffffffffffffffffffffffffffff168152602001908152602001600020600084815260200190815260200160002081905550816007600083815260200190815260200160002081905550505b6007600084815260200190815260200160002060009055600660008573ffffffffffffffffffffffffffffffffffffffff1673ffffffffffffffffffffffffffffffffffffffff16815260200190815260200160002060008381526020019081526020016000206000905550505050565b60006001600880549050612aaa919061430c565b9050600060096000848152602001908152602001600020549050600060088381548110612b00577f4e487b7100000000000000000000000000000000000000000000000000000000600052603260045260246000fd5b906000526020600020015490508060088381548110612b48577f4e487b7100000000000000000000000000000000000000000000000000000000600052603260045260246000fd5b906000526020600020018190555081600960008381526020019081526020016000208190555060096000858152602001908152602001600020600090556008805480612bbd577f4e487b7100000000000000000000000000000000000000000000000000000000600052603160045260246000fd5b6001900381819060005260206000200160009055905550505050565b6000612be483610f0d565b905081600660008573ffffffffffffffffffffffffffffffffffffffff1673ffffffffffffffffffffffffffffffffffffffff168152602001908152602001600020600083815260200190815260200160002081905550806007600084815260200190815260200160002081905550505050565b612c628383612cc6565b612c6f6000848484612744565b612cae576040517f08c379a0000000000000000000000000000000000000000000000000000000008152600401612ca590613f27565b60405180910390fd5b505050565b600080823b905060008111915050919050565b600073ffffffffffffffffffffffffffffffffffffffff168273ffffffffffffffffffffffffffffffffffffffff161415612d36576040517f08c379a0000000000000000000000000000000000000000000000000000000008152600401612d2d90614067565b60405180910390fd5b612d3f81611b77565b15612d7f576040517f08c379a0000000000000000000000000000000000000000000000000000000008152600401612d7690613f67565b60405180910390fd5b612d8b600083836125a3565b6001600360008473ffffffffffffffffffffffffffffffffffffffff1673ffffffffffffffffffffffffffffffffffffffff1681526020019081526020016000206000828254612ddb91906142b6565b92505081905550816002600083815260200190815260200160002060006101000a81548173ffffffffffffffffffffffffffffffffffffffff021916908373ffffffffffffffffffffffffffffffffffffffff160217905550808273ffffffffffffffffffffffffffffffffffffffff16600073ffffffffffffffffffffffffffffffffffffffff167fddf252ad1be2c89b69c2b068fc378daa952ba7f163c4a11628f55a4df523b3ef60405160405180910390a45050565b828054612ea090614400565b90600052602060002090601f016020900481019282612ec25760008555612f09565b82601f10612edb57805160ff1916838001178555612f09565b82800160010185558215612f09579182015b82811115612f08578251825591602001919060010190612eed565b5b509050612f169190612f1a565b5090565b5b80821115612f33576000816000905550600101612f1b565b5090565b6000612f4a612f4584614213565b6141e2565b905082815260208101848484011115612f6257600080fd5b612f6d8482856143be565b509392505050565b6000612f88612f8384614243565b6141e2565b905082815260208101848484011115612fa057600080fd5b612fab8482856143be565b509392505050565b600081359050612fc281614544565b92915050565b600081359050612fd78161455b565b92915050565b600081519050612fec8161455b565b92915050565b60008135905061300181614572565b92915050565b60008135905061301681614589565b92915050565b60008151905061302b81614589565b92915050565b600082601f83011261304257600080fd5b8135613052848260208601612f37565b91505092915050565b600082601f83011261306c57600080fd5b813561307c848260208601612f75565b91505092915050565b600081359050613094816145a0565b92915050565b6000815190506130a9816145a0565b92915050565b6000602082840312156130c157600080fd5b60006130cf84828501612fb3565b91505092915050565b600080604083850312156130eb57600080fd5b60006130f985828601612fb3565b925050602061310a85828601612fb3565b9150509250929050565b60008060006060848603121561312957600080fd5b600061313786828701612fb3565b935050602061314886828701612fb3565b925050604061315986828701613085565b9150509250925092565b6000806000806080858703121561317957600080fd5b600061318787828801612fb3565b945050602061319887828801612fb3565b93505060406131a987828801613085565b925050606085013567ffffffffffffffff8111156131c657600080fd5b6131d287828801613031565b91505092959194509250565b600080604083850312156131f157600080fd5b60006131ff85828601612fb3565b925050602061321085828601612fc8565b9150509250929050565b6000806040838503121561322d57600080fd5b600061323b85828601612fb3565b925050602061324c85828601613085565b9150509250929050565b60006020828403121561326857600080fd5b600061327684828501612fdd565b91505092915050565b60006020828403121561329157600080fd5b600061329f84828501612ff2565b91505092915050565b600080604083850312156132bb57600080fd5b60006132c985828601612ff2565b92505060206132da85828601613085565b9150509250929050565b6000602082840312156132f657600080fd5b600061330484828501613007565b91505092915050565b60006020828403121561331f57600080fd5b600061332d8482850161301c565b91505092915050565b60006020828403121561334857600080fd5b600082013567ffffffffffffffff81111561336257600080fd5b61336e8482850161305b565b91505092915050565b60006020828403121561338957600080fd5b600061339784828501613085565b91505092915050565b6000602082840312156133b257600080fd5b60006133c08482850161309a565b91505092915050565b6133d281614340565b82525050565b6133e181614352565b82525050565b6133f08161435e565b82525050565b6134076134028261435e565b614432565b82525050565b600061341882614273565b6134228185614289565b93506134328185602086016143cd565b61343b81614533565b840191505092915050565b60006134518261427e565b61345b818561429a565b935061346b8185602086016143cd565b61347481614533565b840191505092915050565b600061348a8261427e565b61349481856142ab565b93506134a48185602086016143cd565b80840191505092915050565b60006134bd600b8361429a565b91507f53616c65207061757365640000000000000000000000000000000000000000006000830152602082019050919050565b60006134fd602b8361429a565b91507f455243373231456e756d657261626c653a206f776e657220696e646578206f7560008301527f74206f6620626f756e64730000000000000000000000000000000000000000006020830152604082019050919050565b600061356360328361429a565b91507f4552433732313a207472616e7366657220746f206e6f6e20455243373231526560008301527f63656976657220696d706c656d656e74657200000000000000000000000000006020830152604082019050919050565b60006135c960268361429a565b91507f4f776e61626c653a206e6577206f776e657220697320746865207a65726f206160008301527f64647265737300000000000000000000000000000000000000000000000000006020830152604082019050919050565b600061362f601c8361429a565b91507f4552433732313a20746f6b656e20616c7265616479206d696e746564000000006000830152602082019050919050565b600061366f60248361429a565b91507f4552433732313a207472616e7366657220746f20746865207a65726f2061646460008301527f72657373000000000000000000000000000000000000000000000000000000006020830152604082019050919050565b60006136d560198361429a565b91507f4552433732313a20617070726f766520746f2063616c6c6572000000000000006000830152602082019050919050565b6000613715602b8361429a565b91507f4e6f7420656e6f756768204c494e4b202d2066696c6c20636f6e74726163742060008301527f77697468206661756365740000000000000000000000000000000000000000006020830152604082019050919050565b600061377b602c8361429a565b91507f4552433732313a206f70657261746f7220717565727920666f72206e6f6e657860008301527f697374656e7420746f6b656e00000000000000000000000000000000000000006020830152604082019050919050565b60006137e160388361429a565b91507f4552433732313a20617070726f76652063616c6c6572206973206e6f74206f7760008301527f6e6572206e6f7220617070726f76656420666f7220616c6c00000000000000006020830152604082019050919050565b6000613847602a8361429a565b91507f4552433732313a2062616c616e636520717565727920666f7220746865207a6560008301527f726f2061646472657373000000000000000000000000000000000000000000006020830152604082019050919050565b60006138ad60298361429a565b91507f4552433732313a206f776e657220717565727920666f72206e6f6e657869737460008301527f656e7420746f6b656e00000000000000000000000000000000000000000000006020830152604082019050919050565b600061391360208361429a565b91507f4552433732313a206d696e7420746f20746865207a65726f20616464726573736000830152602082019050919050565b6000613953602c8361429a565b91507f4552433732313a20617070726f76656420717565727920666f72206e6f6e657860008301527f697374656e7420746f6b656e00000000000000000000000000000000000000006020830152604082019050919050565b60006139b960208361429a565b91507f4f776e61626c653a2063616c6c6572206973206e6f7420746865206f776e65726000830152602082019050919050565b60006139f960298361429a565b91507f4552433732313a207472616e73666572206f6620746f6b656e2074686174206960008301527f73206e6f74206f776e00000000000000000000000000000000000000000000006020830152604082019050919050565b6000613a5f602f8361429a565b91507f4552433732314d657461646174613a2055524920717565727920666f72206e6f60008301527f6e6578697374656e7420746f6b656e00000000000000000000000000000000006020830152604082019050919050565b6000613ac5601f8361429a565b91507f4f6e6c7920565246436f6f7264696e61746f722063616e2066756c66696c6c006000830152602082019050919050565b6000613b0560218361429a565b91507f4552433732313a20617070726f76616c20746f2063757272656e74206f776e6560008301527f72000000000000000000000000000000000000000000000000000000000000006020830152604082019050919050565b6000613b6b602c8361429a565b91507f536f207665727920736f727279202d20416c6c2044657270696573206861766560008301527f206265656e206d696e74656400000000000000000000000000000000000000006020830152604082019050919050565b6000613bd160318361429a565b91507f4552433732313a207472616e736665722063616c6c6572206973206e6f74206f60008301527f776e6572206e6f7220617070726f7665640000000000000000000000000000006020830152604082019050919050565b6000613c3760108361429a565b91507f4e6f7420656e6f756768204574686572000000000000000000000000000000006000830152602082019050919050565b6000613c77602c8361429a565b91507f455243373231456e756d657261626c653a20676c6f62616c20696e646578206f60008301527f7574206f6620626f756e647300000000000000000000000000000000000000006020830152604082019050919050565b613cd9816143b4565b82525050565b613cf0613ceb826143b4565b61443c565b82525050565b6000613d0282856133f6565b602082019150613d128284613cdf565b6020820191508190509392505050565b6000613d2e828661347f565b9150613d3a828561347f565b9150613d46828461347f565b9150819050949350505050565b6000602082019050613d6860008301846133c9565b92915050565b6000608082019050613d8360008301876133c9565b613d9060208301866133c9565b613d9d6040830185613cd0565b8181036060830152613daf818461340d565b905095945050505050565b6000604082019050613dcf60008301856133c9565b613ddc6020830184613cd0565b9392505050565b6000606082019050613df860008301866133c9565b613e056020830185613cd0565b8181036040830152613e17818461340d565b9050949350505050565b6000602082019050613e3660008301846133d8565b92915050565b6000602082019050613e5160008301846133e7565b92915050565b6000604082019050613e6c60008301856133e7565b613e796020830184613cd0565b9392505050565b6000608082019050613e9560008301876133e7565b613ea26020830186613cd0565b613eaf60408301856133c9565b613ebc6060830184613cd0565b95945050505050565b60006020820190508181036000830152613edf8184613446565b905092915050565b60006020820190508181036000830152613f00816134b0565b9050919050565b60006020820190508181036000830152613f20816134f0565b9050919050565b60006020820190508181036000830152613f4081613556565b9050919050565b60006020820190508181036000830152613f60816135bc565b9050919050565b60006020820190508181036000830152613f8081613622565b9050919050565b60006020820190508181036000830152613fa081613662565b9050919050565b60006020820190508181036000830152613fc0816136c8565b9050919050565b60006020820190508181036000830152613fe081613708565b9050919050565b600060208201905081810360008301526140008161376e565b9050919050565b60006020820190508181036000830152614020816137d4565b9050919050565b600060208201905081810360008301526140408161383a565b9050919050565b60006020820190508181036000830152614060816138a0565b9050919050565b6000602082019050818103600083015261408081613906565b9050919050565b600060208201905081810360008301526140a081613946565b9050919050565b600060208201905081810360008301526140c0816139ac565b9050919050565b600060208201905081810360008301526140e0816139ec565b9050919050565b6000602082019050818103600083015261410081613a52565b9050919050565b6000602082019050818103600083015261412081613ab8565b9050919050565b6000602082019050818103600083015261414081613af8565b9050919050565b6000602082019050818103600083015261416081613b5e565b9050919050565b6000602082019050818103600083015261418081613bc4565b9050919050565b600060208201905081810360008301526141a081613c2a565b9050919050565b600060208201905081810360008301526141c081613c6a565b9050919050565b60006020820190506141dc6000830184613cd0565b92915050565b6000604051905081810181811067ffffffffffffffff8211171561420957614208614504565b5b8060405250919050565b600067ffffffffffffffff82111561422e5761422d614504565b5b601f19601f8301169050602081019050919050565b600067ffffffffffffffff82111561425e5761425d614504565b5b601f19601f8301169050602081019050919050565b600081519050919050565b600081519050919050565b600082825260208201905092915050565b600082825260208201905092915050565b600081905092915050565b60006142c1826143b4565b91506142cc836143b4565b9250827fffffffffffffffffffffffffffffffffffffffffffffffffffffffffffffffff0382111561430157614300614477565b5b828201905092915050565b6000614317826143b4565b9150614322836143b4565b92508282101561433557614334614477565b5b828203905092915050565b600061434b82614394565b9050919050565b60008115159050919050565b6000819050919050565b60007fffffffff0000000000000000000000000000000000000000000000000000000082169050919050565b600073ffffffffffffffffffffffffffffffffffffffff82169050919050565b6000819050919050565b82818337600083830152505050565b60005b838110156143eb5780820151818401526020810190506143d0565b838111156143fa576000848401525b50505050565b6000600282049050600182168061441857607f821691505b6020821081141561442c5761442b6144d5565b5b50919050565b6000819050919050565b6000819050919050565b6000614451826143b4565b915061445c836143b4565b92508261446c5761446b6144a6565b5b828206905092915050565b7f4e487b7100000000000000000000000000000000000000000000000000000000600052601160045260246000fd5b7f4e487b7100000000000000000000000000000000000000000000000000000000600052601260045260246000fd5b7f4e487b7100000000000000000000000000000000000000000000000000000000600052602260045260246000fd5b7f4e487b7100000000000000000000000000000000000000000000000000000000600052604160045260246000fd5b6000601f19601f8301169050919050565b61454d81614340565b811461455857600080fd5b50565b61456481614352565b811461456f57600080fd5b50565b61457b8161435e565b811461458657600080fd5b50565b61459281614368565b811461459d57600080fd5b50565b6145a9816143b4565b81146145b457600080fd5b5056fea26469706673582212205887a7da20077d8cf05179d2ae3ef010a15ea14007299a0db367290ee2b765a464736f6c63430008000033",
  "linkReferences": {},
  "deployedLinkReferences": {}
}